:02000000252EAB
:10000800FF00030E83018316E4000A08E3008A0157
:1000180070088312A0008C104C0AF0007008CC0005
:100028004C08323A031D1A28CC013B146C0AF00024
:100038007008EC006C08053A031D2B286B0803199F
:1000480029286B03F0007008EB00EC01BB152008B1
:10005800F000831663088A00640E8300FF0E7F0E8B
:0200680009008D
:0C006A0000000000000000000000080082
:10007600243083120313FC00B530FD00FD0B41282C
:0A008600FC0B4128000000000800F8
:0E009000533083120313FD00FD0B4C280800B3
:10009E00831203179D1B5628031387135828031327
:1000AE00871703171D1B5E280313071360280313FE
:1000BE00071703179D1A6628031387126828031360
:1000CE00871603171D1A6E280313071270280313C1
:1000DE0007166F1874280715752807118715352010
:1000EE00871103179D197E28031387138028031386
:1000FE00871703171D198628031307138828031360
:10010E00071703179D188E280313871290280313C1
:10011E00871603171D189628031307129828031322
:10012E0007166F189C2807159D280711871535206F
:0E013E0087116F1CA4283B20A528482008002C
:10014C0083120313F801F9011030FC00710DF80D46
:10015C00F90D7408F8027508031C750FF9020318E1
:10016C00BE287408F80775080318750FF9070310F3
:0A017C00F00DF10DFC0BAC2808009B
:1001860083120313FB01FA01F9018030F800F10C28
:10019600F00C031CD7287408F90775080318750FA7
:1001A600FA070318FB0A0310F01FDF287408FA0782
:1001B60075080318750FFB07FB0CFA0CF90CF80C05
:1001C600031CCA287B08F3007A08F2007908F100BC
:0601D6007808F0000800AB
:1001DC00243083120313FD00FD0BF22800000800ED
:1001EC00831203179B0105301B02031804291B08FB
:1001FC001A078400203080009B0AF9281B081A0774
:10020C00840080019B031B081A079C000A30F40031
:10021C00F5011808F0001908F100A6207808F00084
:10022C007908F1003030F00703171C0884007008BF
:10023C0080000A30F400F5011808F0001908F100EC
:10024C00A6207008031798007108990000307106F9
:10025C00031D322900307006031D352937299B03F5
:04026C000929080054
:10027000831203136F10031718089D004F206F148B
:02028000080074
:10028200532980308312031794006629C0309400EA
:100292006629943094006629D4309400662980300F
:1002A20094006629831203171408013A031942299C
:1002B2001408023A031947291408033A03194A2970
:1002C2001408043A03194D2950291503F0001408A3
:1002D200F0077008940070089D004F206F100317FC
:1002E20097011708160784000008031981291708C7
:1002F200160784000008980038210317970A72290C
:0603020003136F14080054
:1003080083120313F8010830FC00700DF80D74080F
:10031800F80203189129F8070310F00DFC0B89293E
:020328000800CB
:10032A00831203136A0803171407F0001508031849
:10033A00013EF10000300313EA1BFF30F1070A30D7
:10034A00F4000030F500C3203330F4000030F5002B
:10035A00A620700803179400710895007008980089
:10036A0071089900E5309A00F6208316031367088E
:10037A00E6006808E7002E30E8006708203A031D07
:08038A00C8293030E70008002B
:10039200831203139F01C0309F0483161F179F17F8
:1003A200831203171408F000F00D7010F00D701096
:1003B200F00D7010700803139F041F14EE201F1518
:1003C2001F1DE5290000E1291F101E08F100F001A0
:0C03D20083161E08F0040030F10408003F
:0E03DE00831603136C088A006B088200080067
:1003EC000230831203179400C9217008ED007108C4
:1003FC00EE00700883120317940071089500952184
:10040C00023083120317940001309500E5309600FA
:04041C004121080072
:1004200083120313F30183127308CF3EF2007308A3
:1004300003171207F00013080318013EF1007008BB
:1004400083160313EB007108EC00EF218A110A12E6
:10045000F0007208840070088000720884000008B0
:0E0460000319342AF30A132ACF30F0000800E3
:10046E00903083160313CD000130CE005830831226
:0C047E00ED000230EE00EA013B15080022
:10048A00063083120317120793000A30F40003138D
:10049A003808F00084213030F0070317130884006D
:1004AA00700880000730120793000A30F400031323
:1004BA003808F00084217808F0003030F00703177C
:1004CA0013088400700880000330120793000A3072
:1004DA00F40003133908F00084213030F0070317C1
:1004EA0013088400700880000430120793000A3051
:1004FA00F40003133908F00084217808F000303042
:10050A00F00703171308840070088000120893008C
:10051A000A30F40003133A08F00084213030F0075F
:10052A0003171308840070088000120A93000A3027
:10053A00F40003133A08F00084217808F000303000
:10054A00F007031713088400700880000130940034
:0C055A00023095001208960041210800B4
:1005660083160313871107110712871207138713C0
:1005760083128711071187130713871207123B206F
:100586003B203B20871607168715352087113B2011
:100596008715352087113B208715352087113B208D
:1005A60007128715352087113B20871535208711BF
:1005B600871287178715352087113B208713071663
:1005C60087153520871107128715352087113B209F
:1005D60087153520871107168715352087113B208B
:1005E60007128715352087118717071787160716ED
:0C05F6008715352087113B206F1408008A
:100602008312031712080313EB00EC016B080319A2
:060612000B2B072B080072
:10061800831203179001910101309D004F200317A9
:100628001008F000F101F00DF10D70107130F007B5
:1006380007300318013EF107700883160313EB0017
:100648007108EC00EF218A110A1283120317920035
:1006580083160313EB0A0319EC0AEF218A110A1215
:100668008312031793001022700883120317960051
:1006780001309400013095004121013003179200A8
:1006880001238818482B452B0819852B0317900A36
:100698001008053C0318512B900101309D004F2094
:1006A80003171008F000F101F00DF10D7010713012
:1006B800F00707300318013EF1077008831603138B
:1006C800EB007108EC00EF218A110A12831203175C
:1006D800920083160313EB0A0319EC0AEF218A111F
:1006E8000A1283120317930010227008831203174B
:1006F8009600013094000130950041210819852B9E
:10070800822B8819C32B03171008003A031D8E2B60
:1007180006309000900301309D004F200317100809
:10072800F000F101F00DF10D70107130F007073095
:100738000318013EF107700883160313EB007108D4
:10074800EC00EF218A110A12831203179200831614
:100758000313EB0A0319EC0AEF218A110A12831218
:1007680003179300102270088312031796000130B4
:1007780094000130950041218819C32BC02B01300A
:100788000317920001238818CA2BCB2B482B031779
:10079800910103138818D12BCD2B03171008003AA9
:1007A800031D362C013083160313EF00831208193A
:1007B800092C05303C02F1000030031C013E3D02CB
:1007C800F200720883164E02031DEC2B71084D02CD
:1007D8000318092C05304D07F1004E080318013E97
:1007E800F2007108CD007208CE00720883126E06FE
:1007F800031D002C6D087106031D062C0530ED073E
:100808000318EE0A04308316EF0083128819172C98
:1008180083164D084E040319172C0530CD02031C0E
:10082800CE030430EF0083164D088312031794009B
:10083800831603134E08831203179500952102307F
:1008480083120317940001309500E530960041218A
:1008580083166F0883120317920001238818352C1A
:10086800362CD12B031783121008013A031D962C3E
:10087800013083160313EF0083120819522C3D0828
:100888006E02031D492C3C086D020318522C0530DA
:10089800ED070318EE0A04308316EF008312881957
:1008A8007A2C83164E08003C031D5C2C4D08003C36
:1008B80003187A2C053083126D02F1000030031CF6
:1008C800013E6E02F2007108ED007208EE00831618
:1008D8004E087206031D722C71084D06031D782CF4
:1008E8000530CD02031CCE030430EF0083126D08DF
:1008F8000317940003136E0803179500952102301F
:1009080083120317940001309500E53096004121C9
:1009180083166F0883120317920001238818952CF9
:10092800962C362C031783121008023A031DC92C83
:10093800013083160313EF0083120819AF2C80309F
:100948006A06F00080307E3A70020318AF2CEA0A7B
:1009580004308316EF0083128819BE2C8030823A47
:10096800F00080306A0670020318BE2CEA030430D7
:100978008316EF00F62183166F088312031792007F
:1009880001238818C82CC92C962C03178312100829
:10099800033A031D2F2D1108F000F101F00DF10DA0
:1009A8007010BD30F00707300318013EF1077008DA
:1009B80083160313EB007108EC00EF218A110A1269
:1009C80083120317920083160313EB0A0319EC0A28
:1009D800EF218A110A12831203179300102270085C
:1009E80083120317960002309400013095004121CC
:1009F8000819092D0317910A1108013C0318052D40
:100A0800910103130819092D052D8819172D0317AE
:100A18001108003A031D122D0230910091030313AF
:100A28008819172D132D1E2D03133B11272D031382
:100A38003B15272D03171108003A0319182D110823
:100A4800013A03191B2D031702309200012388185D
:100A58002E2D2F2DC92C03171008043A031D8A2D9B
:100A68001108F000F101F00DF10D7010C130F00720
:100A780007300318013EF107700883160313EB00D3
:100A88007108EC00EF218A110A12831203179200F1
:100A980083160313EB0A0319EC0AEF218A110A12D1
:100AA800831203179300102270088312031796000D
:100AB8000230940001309500412108196E2D03176A
:100AC800910A1108013C03186A2D910103130819B2
:100AD8006E2D6A2D88197C2D03171108003A031D05
:100AE800772D023091009103031388197C2D782DFE
:100AF80003171108003A031D822D3722023003170D
:100B0800920001238818892D8A2D2F2D031710088C
:100B1800053A031D902D912D102B013094000130C2
:100B280095002830960041211430031792000123C4
:100B3800013003179D004F203B1502300317940026
:100B480006309500213096004121013003179400AA
:0C0B58000C30950023309600412108006D
:100B6400831203133B103B19DF2D0230031794004B
:100B7400103095005E3096004121BB1CC72DBB1080
:100B84003A30D5003A30D800DE2DBB142030D500E1
:100B94002030D800B80A38083C3A031DD32DB801D8
:100BA400B90A39083C3A031DD92DB901BA0A3A08E1
:100BB400643A031DDE2DBA01F82D3A30D5003A30DF
:100BC400D800BB1CEF2DBB1002300317940010306B
:100BD40095005C3096004121F82DBB1402300317B8
:100BE4009400103095006030960041215330031773
:060BF400920045220800FA
:100BFA00B322013003179D004F200C3003179D00CC
:100C0A004F208316051506108312061083168814C2
:100C1A0008158815F93092004D30831292000B178F
:080C2A0083168C148B170800DF
:100C3200EF218A110A128000840AEB0A0319EC0AD6
:080C4200F003031D192E080048
:100C4A00C627FD250130831203179400033095004F
:100C5A00AF3096004121023003179400013095000D
:100C6A00BC30960041210D30FB00AF30FC00B6309D
:100C7A00FD00FD0B3E2EFC0B3E2EFB0B3E2E000014
:100C8A00013003179D004F200130031794000530EF
:100C9A009500623096004121023003179400023019
:100CAA009500A030960041210D30FB00AF30FC00CA
:100CBA00B630FD00FD0B5F2EFC0B5F2EFB0B5F2E8B
:100CCA000000013003179D004F20013003179400E4
:100CDA000C3095004E3096004121023003179400E3
:100CEA0006309500423096004121023003179400E5
:100CFA000C3095004430960041213B119030831608
:100D0A00CD000130CE0058308312ED000230EE00E3
:100D1A00EA013B153B1C922EB225BB1D952E962E41
:100D2A008F2EBB11F62183164E086E02031D9F2ECD
:100D3A004D086D020318AE2E83123B19AE2E3B15D9
:100D4A0006100230031794000C3095003E309600CE
:100D5A00412183166E0883126E02031DB82E831674
:100D6A006D0883126D020318C92E3B1DC92E3B1153
:100D7A0006140230031794000C3095004830960090
:100D8A004121BA01B901B8018818D62E1E304D0288
:100D9A000318D02ECD0A4D08193A031DD62E0C235E
:060DAA00CD018F2ED72EB3
:100F8C0021308400493083120313F000DD308316C6
:100F9C00EB000630EC001926A03084002D308312B3
:100FAC00F00026308316EB000730EC0019266A306F
:100FBC00840001308312F00003308316EB00003004
:060FCC00EC0019260800EC
:020006000034C4
:040DBA005634003477
:0A0DBE004134553454344F340034EE
:100DC80053344534543455345034203443344F3438
:100DD8004D3450344C344534543445342134003483
:020DE8000034D5
:020DEA000034D3
:020DEC000034D1
:020DEE000034CF
:040DF000FF34033495
:080DF4004F344634463400344C
:040DFC005634003435
:080E00004F344634463400343F
:080E08004F344E342034003455
:020E10000034AC
:020E12000034AA
:0A0E14004134553454344F34003497
:100E1E00303430343A34303430343A343034303490
:020E2E0000348E
:040E30002A3400342C
:040E34002A34003428
:040E3800203400342E
:100E3C0042344134543454344534523459340034EB
:100E4C00503452344F3454344534433454344F3486
:0E0E5C0052342034763431342E3430340034A5
:100E6A004D3449344E3449342034503452344F349A
:0A0E7A004A34453443345434003444
:100E84005334363420344534453445342C342034FA
:100E94005234493454342C344B34543459344D344E
:020EA400003418
:100EA6004834493447344834203450345234453475
:100EB60053344534543420344D344F34443445345B
:020EC6000034F6
:100EC80049344E3450345534543420344F34463435
:0A0ED80046345334453454340034DA
:100EE200953407347D34073464340734533407347B
:080EF20089340734B3340734DE
:100EFA004834493447344834203450345234453421
:080F0A00533445345434003423
:100F1200443445344634413455344C34543420340A
:080F220041344C344C3400341E
:100F2A004C344F34573420345034523445345334CB
:060F3A004534543400347C
:0E0F40004134553454344F34203420340034BE
:0E0F4E004D3441344E34553441344C3400346B
:0A0F5C005934453453343F34003457
:0A0F66004534583449345434003443
:0A0F70004E344F343F342034003477
:080F7A00A7340734A03407344A
:080F8200AE340734B834073423
:02400E007A3BFB
:00000001FF
